{
  "_format": "hh-sol-artifact-1",
  "contractName": "ActivityToken",
  "sourceName": "contracts/ActivityToken.sol",
  "abi": [
    {
      "inputs": [
        {
          "internalType": "address",
          "name": "superSolid",
          "type": "address"
        }
      ],
      "stateMutability": "nonpayable",
      "type": "constructor"
    },
    {
      "anonymous": false,
      "inputs": [
        {
          "indexed": true,
          "internalType": "address",
          "name": "account",
          "type": "address"
        },
        {
          "indexed": true,
          "internalType": "address",
          "name": "operator",
          "type": "address"
        },
        {
          "indexed": false,
          "internalType": "bool",
          "name": "approved",
          "type": "bool"
        }
      ],
      "name": "ApprovalForAll",
      "type": "event"
    },
    {
      "anonymous": false,
      "inputs": [
        {
          "indexed": true,
          "internalType": "uint256",
          "name": "tokenId",
          "type": "uint256"
        },
        {
          "indexed": true,
          "internalType": "bytes",
          "name": "cBytes",
          "type": "bytes"
        }
      ],
      "name": "SetupEvent",
      "type": "event"
    },
    {
      "anonymous": false,
      "inputs": [
        {
          "indexed": true,
          "internalType": "address",
          "name": "operator",
          "type": "address"
        },
        {
          "indexed": true,
          "internalType": "address",
          "name": "from",
          "type": "address"
        },
        {
          "indexed": true,
          "internalType": "address",
          "name": "to",
          "type": "address"
        },
        {
          "indexed": false,
          "internalType": "uint256[]",
          "name": "ids",
          "type": "uint256[]"
        },
        {
          "indexed": false,
          "internalType": "uint256[]",
          "name": "values",
          "type": "uint256[]"
        }
      ],
      "name": "TransferBatch",
      "type": "event"
    },
    {
      "anonymous": false,
      "inputs": [
        {
          "indexed": true,
          "internalType": "address",
          "name": "operator",
          "type": "address"
        },
        {
          "indexed": true,
          "internalType": "address",
          "name": "from",
          "type": "address"
        },
        {
          "indexed": true,
          "internalType": "address",
          "name": "to",
          "type": "address"
        },
        {
          "indexed": false,
          "internalType": "uint256",
          "name": "id",
          "type": "uint256"
        },
        {
          "indexed": false,
          "internalType": "uint256",
          "name": "value",
          "type": "uint256"
        }
      ],
      "name": "TransferSingle",
      "type": "event"
    },
    {
      "anonymous": false,
      "inputs": [
        {
          "indexed": false,
          "internalType": "string",
          "name": "value",
          "type": "string"
        },
        {
          "indexed": true,
          "internalType": "uint256",
          "name": "id",
          "type": "uint256"
        }
      ],
      "name": "URI",
      "type": "event"
    },
    {
      "inputs": [
        {
          "internalType": "uint256",
          "name": "tokenId",
          "type": "uint256"
        }
      ],
      "name": "admin",
      "outputs": [
        {
          "internalType": "address",
          "name": "",
          "type": "address"
        }
      ],
      "stateMutability": "view",
      "type": "function"
    },
    {
      "inputs": [
        {
          "internalType": "address",
          "name": "account",
          "type": "address"
        },
        {
          "internalType": "uint256",
          "name": "id",
          "type": "uint256"
        }
      ],
      "name": "balanceOf",
      "outputs": [
        {
          "internalType": "uint256",
          "name": "",
          "type": "uint256"
        }
      ],
      "stateMutability": "view",
      "type": "function"
    },
    {
      "inputs": [
        {
          "internalType": "address[]",
          "name": "accounts",
          "type": "address[]"
        },
        {
          "internalType": "uint256[]",
          "name": "ids",
          "type": "uint256[]"
        }
      ],
      "name": "balanceOfBatch",
      "outputs": [
        {
          "internalType": "uint256[]",
          "name": "",
          "type": "uint256[]"
        }
      ],
      "stateMutability": "view",
      "type": "function"
    },
    {
      "inputs": [
        {
          "internalType": "uint256",
          "name": "tokenId",
          "type": "uint256"
        },
        {
          "internalType": "uint256",
          "name": "amount",
          "type": "uint256"
        }
      ],
      "name": "burn",
      "outputs": [],
      "stateMutability": "nonpayable",
      "type": "function"
    },
    {
      "inputs": [
        {
          "internalType": "uint256",
          "name": "tokenId",
          "type": "uint256"
        },
        {
          "internalType": "bytes",
          "name": "data",
          "type": "bytes"
        }
      ],
      "name": "checkValidity",
      "outputs": [
        {
          "internalType": "bool",
          "name": "",
          "type": "bool"
        }
      ],
      "stateMutability": "view",
      "type": "function"
    },
    {
      "inputs": [
        {
          "internalType": "uint256",
          "name": "tokenId",
          "type": "uint256"
        },
        {
          "internalType": "bytes",
          "name": "data",
          "type": "bytes"
        }
      ],
      "name": "claim",
      "outputs": [],
      "stateMutability": "nonpayable",
      "type": "function"
    },
    {
      "inputs": [
        {
          "internalType": "address",
          "name": "account",
          "type": "address"
        },
        {
          "internalType": "address",
          "name": "operator",
          "type": "address"
        }
      ],
      "name": "isApprovedForAll",
      "outputs": [
        {
          "internalType": "bool",
          "name": "",
          "type": "bool"
        }
      ],
      "stateMutability": "view",
      "type": "function"
    },
    {
      "inputs": [
        {
          "internalType": "address",
          "name": "from",
          "type": "address"
        },
        {
          "internalType": "address",
          "name": "to",
          "type": "address"
        },
        {
          "internalType": "uint256[]",
          "name": "ids",
          "type": "uint256[]"
        },
        {
          "internalType": "uint256[]",
          "name": "amounts",
          "type": "uint256[]"
        },
        {
          "internalType": "bytes",
          "name": "data",
          "type": "bytes"
        }
      ],
      "name": "safeBatchTransferFrom",
      "outputs": [],
      "stateMutability": "nonpayable",
      "type": "function"
    },
    {
      "inputs": [
        {
          "internalType": "address",
          "name": "from",
          "type": "address"
        },
        {
          "internalType": "address",
          "name": "to",
          "type": "address"
        },
        {
          "internalType": "uint256",
          "name": "id",
          "type": "uint256"
        },
        {
          "internalType": "uint256",
          "name": "amount",
          "type": "uint256"
        },
        {
          "internalType": "bytes",
          "name": "data",
          "type": "bytes"
        }
      ],
      "name": "safeTransferFrom",
      "outputs": [],
      "stateMutability": "nonpayable",
      "type": "function"
    },
    {
      "inputs": [
        {
          "internalType": "address",
          "name": "operator",
          "type": "address"
        },
        {
          "internalType": "bool",
          "name": "approved",
          "type": "bool"
        }
      ],
      "name": "setApprovalForAll",
      "outputs": [],
      "stateMutability": "nonpayable",
      "type": "function"
    },
    {
      "inputs": [
        {
          "internalType": "uint256",
          "name": "tokenId",
          "type": "uint256"
        },
        {
          "internalType": "bytes",
          "name": "superSolBytes",
          "type": "bytes"
        }
      ],
      "name": "setup",
      "outputs": [],
      "stateMutability": "nonpayable",
      "type": "function"
    },
    {
      "inputs": [],
      "name": "superSolidAddress",
      "outputs": [
        {
          "internalType": "address",
          "name": "",
          "type": "address"
        }
      ],
      "stateMutability": "view",
      "type": "function"
    },
    {
      "inputs": [
        {
          "internalType": "bytes4",
          "name": "interfaceId",
          "type": "bytes4"
        }
      ],
      "name": "supportsInterface",
      "outputs": [
        {
          "internalType": "bool",
          "name": "",
          "type": "bool"
        }
      ],
      "stateMutability": "view",
      "type": "function"
    },
    {
      "inputs": [
        {
          "internalType": "uint256",
          "name": "tokenId",
          "type": "uint256"
        }
      ],
      "name": "uri",
      "outputs": [
        {
          "internalType": "string",
          "name": "",
          "type": "string"
        }
      ],
      "stateMutability": "view",
      "type": "function"
    }
  ],
  "bytecode": "0x608060405234801561001057600080fd5b50604051611a9f380380611a9f83398101604081905261002f91610054565b600480546001600160a01b0319166001600160a01b0392909216919091179055610084565b60006020828403121561006657600080fd5b81516001600160a01b038116811461007d57600080fd5b9392505050565b611a0c806100936000396000f3fe608060405234801561001057600080fd5b50600436106100e95760003560e01c80634e1273f41161008c578063b390c0ab11610066578063b390c0ab146101fd578063d599a1c614610210578063e985e9c514610239578063f242432a1461027557600080fd5b80634e1273f4146101a55780639c2c9b2e146101c5578063a22cb465146101ea57600080fd5b80632eb2c2d6116100c85780632eb2c2d61461015757806338926b6d1461016c5780633dfafd531461017f5780634523c08c1461019257600080fd5b8062fdd58e146100ee57806301ffc9a7146101145780630e89341c14610137575b600080fd5b6101016100fc36600461117d565b610283565b6040519081526020015b60405180910390f35b6101276101223660046111c0565b610319565b604051901515815260200161010b565b61014a6101453660046111e4565b61036b565b60405161010b919061124a565b61016a6101653660046113a9565b61040d565b005b61016a61017a366004611453565b61045c565b61012761018d366004611453565b6105ec565b61016a6101a0366004611453565b610718565b6101b86101b33660046114cf565b6107ff565b60405161010b91906115d5565b6004546001600160a01b03165b6040516001600160a01b03909116815260200161010b565b61016a6101f83660046115f6565b610929565b61016a61020b36600461162d565b610938565b6101d261021e3660046111e4565b6000908152600260205260409020546001600160a01b031690565b61012761024736600461164f565b6001600160a01b03918216600090815260016020908152604080832093909416825291909152205460ff1690565b61016a610165366004611682565b60006001600160a01b0383166102f35760405162461bcd60e51b815260206004820152602a60248201527f455243313135353a2061646472657373207a65726f206973206e6f742061207660448201526930b634b21037bbb732b960b11b60648201526084015b60405180910390fd5b506000908152602081815260408083206001600160a01b03949094168352929052205490565b60006001600160e01b03198216636cdb3d1360e11b148061034a57506001600160e01b031982166303a24d0760e21b145b8061036557506301ffc9a760e01b6001600160e01b03198316145b92915050565b6000818152600360205260409020805460609190610388906116e7565b80601f01602080910402602001604051908101604052809291908181526020018280546103b4906116e7565b80156104015780601f106103d657610100808354040283529160200191610401565b820191906000526020600020905b8154815290600101906020018083116103e457829003601f168201915b50505050509050919050565b60405162461bcd60e51b815260206004820152601b60248201527f546f6b656e2063616e206e6f74206265207472616e736665726564000000000060448201526064016102ea565b5050505050565b60008381526002602052604081206001018054610478906116e7565b80601f01602080910402602001604051908101604052809291908181526020018280546104a4906116e7565b80156104f15780601f106104c6576101008083540402835291602001916104f1565b820191906000526020600020905b8154815290600101906020018083116104d457829003601f168201915b505060048054604051633461bf1360e11b81529596506000956001600160a01b0390911694506368c37e2693506105319250869189918991339101611722565b60206040518083038186803b15801561054957600080fd5b505afa15801561055d573d6000803e3d6000fd5b505050506040513d601f19601f820116820180604052508101906105819190611777565b9050806105d05760405162461bcd60e51b815260206004820152601e60248201527f4e6f7420616c6c6f77656420746f20636c61696d2074686520746f6b656e000060448201526064016102ea565b6104553386600160405180602001604052806000815250610ad7565b6000838152600260205260408120600101805482919061060b906116e7565b80601f0160208091040260200160405190810160405280929190818152602001828054610637906116e7565b80156106845780601f1061065957610100808354040283529160200191610684565b820191906000526020600020905b81548152906001019060200180831161066757829003601f168201915b505060048054604051633461bf1360e11b81529596506001600160a01b0316946368c37e2694506106bf935086925089918991339101611722565b60206040518083038186803b1580156106d757600080fd5b505afa1580156106eb573d6000803e3d6000fd5b505050506040513d601f19601f8201168201806040525081019061070f9190611777565b95945050505050565b604051806040016040528061072a3390565b6001600160a01b0316815260200183838080601f0160208091040260200160405190810160405280939291908181526020018383808284376000920182905250939094525050858152600260209081526040909120835181546001600160a01b0319166001600160a01b039091161781558382015180519193506107b59260018501929101906110c8565b50506040516107c8915083908390611794565b6040519081900381209084907f116fd5a6fbb5ba062480f0da2045e37f53b02038395696e491bd2764ebcae12a90600090a3505050565b606081518351146108645760405162461bcd60e51b815260206004820152602960248201527f455243313135353a206163636f756e747320616e6420696473206c656e677468604482015268040dad2e6dac2e8c6d60bb1b60648201526084016102ea565b6000835167ffffffffffffffff8111156108805761088061125d565b6040519080825280602002602001820160405280156108a9578160200160208202803683370190505b50905060005b8451811015610921576108f48582815181106108cd576108cd6117a4565b60200260200101518583815181106108e7576108e76117a4565b6020026020010151610283565b828281518110610906576109066117a4565b602090810291909101015261091a816117d0565b90506108af565b509392505050565b610934338383610beb565b5050565b610934338383610ccc565b8451811015610a69576000858281518110610960576109606117a4565b60200260200101519050600085838151811061097e5761097e6117a4565b602090810291909101810151600084815280835260408082206001600160a01b038e168352909352919091205490915081811015610a115760405162461bcd60e51b815260206004820152602a60248201527f455243313135353a20696e73756666696369656e742062616c616e636520666f60448201526939103a3930b739b332b960b11b60648201526084016102ea565b6000838152602081815260408083206001600160a01b038e8116855292528083208585039055908b16825281208054849290610a4e9084906117eb565b9250508190555050505080610a62906117d0565b9050610943565b50846001600160a01b0316866001600160a01b0316826001600160a01b03167f4a39dc06d4c0dbc64b70af90fd698a233a518aa5d07e595d983b8c0526c8f7fb8787604051610ab9929190611803565b60405180910390a4610acf818787878787610e48565b505050505050565b6001600160a01b038416610b375760405162461bcd60e51b815260206004820152602160248201527f455243313135353a206d696e7420746f20746865207a65726f206164647265736044820152607360f81b60648201526084016102ea565b336000610b4385610fb3565b90506000610b5085610fb3565b90506000868152602081815260408083206001600160a01b038b16845290915281208054879290610b829084906117eb565b909155505060408051878152602081018790526001600160a01b03808a1692600092918716917fc3d58168c5ae7397731d063d5bbf3d657854427343f4c083240f7aacaa2d0f62910160405180910390a4610be283600089898989610ffe565b50505050505050565b816001600160a01b0316836001600160a01b03161415610c5f5760405162461bcd60e51b815260206004820152602960248201527f455243313135353a2073657474696e6720617070726f76616c20737461747573604482015268103337b91039b2b63360b91b60648201526084016102ea565b6001600160a01b03838116600081815260016020908152604080832094871680845294825291829020805460ff191686151590811790915591519182527f17307eab39ab6107e8899845ad3d59bd9653f200f220920489ca2b5937696c31910160405180910390a3505050565b6001600160a01b038316610d2e5760405162461bcd60e51b815260206004820152602360248201527f455243313135353a206275726e2066726f6d20746865207a65726f206164647260448201526265737360e81b60648201526084016102ea565b336000610d3a84610fb3565b90506000610d4784610fb3565b60408051602080820183526000918290528882528181528282206001600160a01b038b1683529052205490915084811015610dd05760405162461bcd60e51b8152602060048201526024808201527f455243313135353a206275726e20616d6f756e7420657863656564732062616c604482015263616e636560e01b60648201526084016102ea565b6000868152602081815260408083206001600160a01b038b81168086529184528285208a8703905582518b81529384018a90529092908816917fc3d58168c5ae7397731d063d5bbf3d657854427343f4c083240f7aacaa2d0f62910160405180910390a4604080516020810190915260009052610be2565b6001600160a01b0384163b15610acf5760405163bc197c8160e01b81526001600160a01b0385169063bc197c8190610e8c9089908990889088908890600401611828565b602060405180830381600087803b158015610ea657600080fd5b505af1925050508015610ed6575060408051601f3d908101601f19168201909252610ed391810190611886565b60015b610f8357610ee26118a3565b806308c379a01415610f1c5750610ef76118bf565b80610f025750610f1e565b8060405162461bcd60e51b81526004016102ea919061124a565b505b60405162461bcd60e51b815260206004820152603460248201527f455243313135353a207472616e7366657220746f206e6f6e2d455243313135356044820152732932b1b2b4bb32b91034b6b83632b6b2b73a32b960611b60648201526084016102ea565b6001600160e01b0319811663bc197c8160e01b14610be25760405162461bcd60e51b81526004016102ea90611949565b60408051600180825281830190925260609160009190602080830190803683370190505090508281600081518110610fed57610fed6117a4565b602090810291909101015292915050565b6001600160a01b0384163b15610acf5760405163f23a6e6160e01b81526001600160a01b0385169063f23a6e61906110429089908990889088908890600401611991565b602060405180830381600087803b15801561105c57600080fd5b505af192505050801561108c575060408051601f3d908101601f1916820190925261108991810190611886565b60015b61109857610ee26118a3565b6001600160e01b0319811663f23a6e6160e01b14610be25760405162461bcd60e51b81526004016102ea90611949565b8280546110d4906116e7565b90600052602060002090601f0160209004810192826110f6576000855561113c565b82601f1061110f57805160ff191683800117855561113c565b8280016001018555821561113c579182015b8281111561113c578251825591602001919060010190611121565b5061114892915061114c565b5090565b5b80821115611148576000815560010161114d565b80356001600160a01b038116811461117857600080fd5b919050565b6000806040838503121561119057600080fd5b61119983611161565b946020939093013593505050565b6001600160e01b0319811681146111bd57600080fd5b50565b6000602082840312156111d257600080fd5b81356111dd816111a7565b9392505050565b6000602082840312156111f657600080fd5b5035919050565b6000815180845260005b8181101561122357602081850181015186830182015201611207565b81811115611235576000602083870101525b50601f01601f19169290920160200192915050565b6020815260006111dd60208301846111fd565b634e487b7160e01b600052604160045260246000fd5b601f8201601f1916810167ffffffffffffffff811182821017156112995761129961125d565b6040525050565b600067ffffffffffffffff8211156112ba576112ba61125d565b5060051b60200190565b600082601f8301126112d557600080fd5b813560206112e2826112a0565b6040516112ef8282611273565b83815260059390931b850182019282810191508684111561130f57600080fd5b8286015b8481101561132a5780358352918301918301611313565b509695505050505050565b600082601f83011261134657600080fd5b813567ffffffffffffffff8111156113605761136061125d565b604051611377601f8301601f191660200182611273565b81815284602083860101111561138c57600080fd5b816020850160208301376000918101602001919091529392505050565b600080600080600060a086880312156113c157600080fd5b6113ca86611161565b94506113d860208701611161565b9350604086013567ffffffffffffffff808211156113f557600080fd5b61140189838a016112c4565b9450606088013591508082111561141757600080fd5b61142389838a016112c4565b9350608088013591508082111561143957600080fd5b5061144688828901611335565b9150509295509295909350565b60008060006040848603121561146857600080fd5b83359250602084013567ffffffffffffffff8082111561148757600080fd5b818601915086601f83011261149b57600080fd5b8135818111156114aa57600080fd5b8760208285010111156114bc57600080fd5b6020830194508093505050509250925092565b600080604083850312156114e257600080fd5b823567ffffffffffffffff808211156114fa57600080fd5b818501915085601f83011261150e57600080fd5b8135602061151b826112a0565b6040516115288282611273565b83815260059390931b850182019282810191508984111561154857600080fd5b948201945b8386101561156d5761155e86611161565b8252948201949082019061154d565b9650508601359250508082111561158357600080fd5b50611590858286016112c4565b9150509250929050565b600081518084526020808501945080840160005b838110156115ca578151875295820195908201906001016115ae565b509495945050505050565b6020815260006111dd602083018461159a565b80151581146111bd57600080fd5b6000806040838503121561160957600080fd5b61161283611161565b91506020830135611622816115e8565b809150509250929050565b6000806040838503121561164057600080fd5b50508035926020909101359150565b6000806040838503121561166257600080fd5b61166b83611161565b915061167960208401611161565b90509250929050565b600080600080600060a0868803121561169a57600080fd5b6116a386611161565b94506116b160208701611161565b93506040860135925060608601359150608086013567ffffffffffffffff8111156116db57600080fd5b61144688828901611335565b600181811c908216806116fb57607f821691505b6020821081141561171c57634e487b7160e01b600052602260045260246000fd5b50919050565b60608152600061173560608301876111fd565b8281036020840152848152848660208301376000602086830101526020601f19601f87011682010191505060018060a01b038316604083015295945050505050565b60006020828403121561178957600080fd5b81516111dd816115e8565b8183823760009101908152919050565b634e487b7160e01b600052603260045260246000fd5b634e487b7160e01b600052601160045260246000fd5b60006000198214156117e4576117e46117ba565b5060010190565b600082198211156117fe576117fe6117ba565b500190565b604081526000611816604083018561159a565b828103602084015261070f818561159a565b6001600160a01b0386811682528516602082015260a0604082018190526000906118549083018661159a565b8281036060840152611866818661159a565b9050828103608084015261187a81856111fd565b98975050505050505050565b60006020828403121561189857600080fd5b81516111dd816111a7565b600060033d11156118bc5760046000803e5060005160e01c5b90565b600060443d10156118cd5790565b6040516003193d81016004833e81513d67ffffffffffffffff81602484011181841117156118fd57505050505090565b82850191508151818111156119155750505050505090565b843d870101602082850101111561192f5750505050505090565b61193e60208286010187611273565b509095945050505050565b60208082526028908201527f455243313135353a204552433131353552656365697665722072656a656374656040820152676420746f6b656e7360c01b606082015260800190565b6001600160a01b03868116825285166020820152604081018490526060810183905260a0608082018190526000906119cb908301846111fd565b97965050505050505056fea26469706673582212205973bccd27d5cf9360d7bd8a7f7e45784621e8d9ea36e82a1a86bd93d5f624d564736f6c63430008090033",
  "linkReferences": {},
  "deployedLinkReferences": {}
}