{
  "_format": "hh-sol-artifact-1",
  "contractName": "ActivityToken",
  "sourceName": "contracts/ActivityToken.sol",
  "abi": [
    {
      "inputs": [
        {
          "internalType": "address",
          "name": "superSolid",
          "type": "address"
        }
      ],
      "stateMutability": "nonpayable",
      "type": "constructor"
    },
    {
      "anonymous": false,
      "inputs": [
        {
          "indexed": true,
          "internalType": "address",
          "name": "account",
          "type": "address"
        },
        {
          "indexed": true,
          "internalType": "address",
          "name": "operator",
          "type": "address"
        },
        {
          "indexed": false,
          "internalType": "bool",
          "name": "approved",
          "type": "bool"
        }
      ],
      "name": "ApprovalForAll",
      "type": "event"
    },
    {
      "anonymous": false,
      "inputs": [
        {
          "indexed": true,
          "internalType": "uint256",
          "name": "tokenId",
          "type": "uint256"
        },
        {
          "indexed": true,
          "internalType": "bytes",
          "name": "cBytes",
          "type": "bytes"
        }
      ],
      "name": "SetupEvent",
      "type": "event"
    },
    {
      "anonymous": false,
      "inputs": [
        {
          "indexed": true,
          "internalType": "address",
          "name": "operator",
          "type": "address"
        },
        {
          "indexed": true,
          "internalType": "address",
          "name": "from",
          "type": "address"
        },
        {
          "indexed": true,
          "internalType": "address",
          "name": "to",
          "type": "address"
        },
        {
          "indexed": false,
          "internalType": "uint256[]",
          "name": "ids",
          "type": "uint256[]"
        },
        {
          "indexed": false,
          "internalType": "uint256[]",
          "name": "values",
          "type": "uint256[]"
        }
      ],
      "name": "TransferBatch",
      "type": "event"
    },
    {
      "anonymous": false,
      "inputs": [
        {
          "indexed": true,
          "internalType": "address",
          "name": "operator",
          "type": "address"
        },
        {
          "indexed": true,
          "internalType": "address",
          "name": "from",
          "type": "address"
        },
        {
          "indexed": true,
          "internalType": "address",
          "name": "to",
          "type": "address"
        },
        {
          "indexed": false,
          "internalType": "uint256",
          "name": "id",
          "type": "uint256"
        },
        {
          "indexed": false,
          "internalType": "uint256",
          "name": "value",
          "type": "uint256"
        }
      ],
      "name": "TransferSingle",
      "type": "event"
    },
    {
      "anonymous": false,
      "inputs": [
        {
          "indexed": false,
          "internalType": "string",
          "name": "value",
          "type": "string"
        },
        {
          "indexed": true,
          "internalType": "uint256",
          "name": "id",
          "type": "uint256"
        }
      ],
      "name": "URI",
      "type": "event"
    },
    {
      "inputs": [
        {
          "internalType": "uint256",
          "name": "tokenId",
          "type": "uint256"
        }
      ],
      "name": "admin",
      "outputs": [
        {
          "internalType": "address",
          "name": "",
          "type": "address"
        }
      ],
      "stateMutability": "view",
      "type": "function"
    },
    {
      "inputs": [
        {
          "internalType": "address",
          "name": "account",
          "type": "address"
        },
        {
          "internalType": "uint256",
          "name": "id",
          "type": "uint256"
        }
      ],
      "name": "balanceOf",
      "outputs": [
        {
          "internalType": "uint256",
          "name": "",
          "type": "uint256"
        }
      ],
      "stateMutability": "view",
      "type": "function"
    },
    {
      "inputs": [
        {
          "internalType": "address[]",
          "name": "accounts",
          "type": "address[]"
        },
        {
          "internalType": "uint256[]",
          "name": "ids",
          "type": "uint256[]"
        }
      ],
      "name": "balanceOfBatch",
      "outputs": [
        {
          "internalType": "uint256[]",
          "name": "",
          "type": "uint256[]"
        }
      ],
      "stateMutability": "view",
      "type": "function"
    },
    {
      "inputs": [
        {
          "internalType": "uint256",
          "name": "tokenId",
          "type": "uint256"
        },
        {
          "internalType": "uint256",
          "name": "amount",
          "type": "uint256"
        }
      ],
      "name": "burn",
      "outputs": [],
      "stateMutability": "nonpayable",
      "type": "function"
    },
    {
      "inputs": [
        {
          "internalType": "uint256",
          "name": "tokenId",
          "type": "uint256"
        },
        {
          "internalType": "bytes",
          "name": "data",
          "type": "bytes"
        }
      ],
      "name": "checkValidity",
      "outputs": [
        {
          "internalType": "bool",
          "name": "",
          "type": "bool"
        }
      ],
      "stateMutability": "view",
      "type": "function"
    },
    {
      "inputs": [
        {
          "internalType": "uint256",
          "name": "tokenId",
          "type": "uint256"
        },
        {
          "internalType": "bytes",
          "name": "data",
          "type": "bytes"
        }
      ],
      "name": "claim",
      "outputs": [],
      "stateMutability": "nonpayable",
      "type": "function"
    },
    {
      "inputs": [
        {
          "internalType": "address",
          "name": "account",
          "type": "address"
        },
        {
          "internalType": "address",
          "name": "operator",
          "type": "address"
        }
      ],
      "name": "isApprovedForAll",
      "outputs": [
        {
          "internalType": "bool",
          "name": "",
          "type": "bool"
        }
      ],
      "stateMutability": "view",
      "type": "function"
    },
    {
      "inputs": [
        {
          "internalType": "address",
          "name": "from",
          "type": "address"
        },
        {
          "internalType": "address",
          "name": "to",
          "type": "address"
        },
        {
          "internalType": "uint256[]",
          "name": "ids",
          "type": "uint256[]"
        },
        {
          "internalType": "uint256[]",
          "name": "amounts",
          "type": "uint256[]"
        },
        {
          "internalType": "bytes",
          "name": "data",
          "type": "bytes"
        }
      ],
      "name": "safeBatchTransferFrom",
      "outputs": [],
      "stateMutability": "nonpayable",
      "type": "function"
    },
    {
      "inputs": [
        {
          "internalType": "address",
          "name": "from",
          "type": "address"
        },
        {
          "internalType": "address",
          "name": "to",
          "type": "address"
        },
        {
          "internalType": "uint256",
          "name": "id",
          "type": "uint256"
        },
        {
          "internalType": "uint256",
          "name": "amount",
          "type": "uint256"
        },
        {
          "internalType": "bytes",
          "name": "data",
          "type": "bytes"
        }
      ],
      "name": "safeTransferFrom",
      "outputs": [],
      "stateMutability": "nonpayable",
      "type": "function"
    },
    {
      "inputs": [
        {
          "internalType": "address",
          "name": "operator",
          "type": "address"
        },
        {
          "internalType": "bool",
          "name": "approved",
          "type": "bool"
        }
      ],
      "name": "setApprovalForAll",
      "outputs": [],
      "stateMutability": "nonpayable",
      "type": "function"
    },
    {
      "inputs": [
        {
          "internalType": "uint256",
          "name": "tokenId",
          "type": "uint256"
        },
        {
          "internalType": "bytes",
          "name": "superSolBytes",
          "type": "bytes"
        },
        {
          "internalType": "string",
          "name": "tokenURI",
          "type": "string"
        }
      ],
      "name": "setup",
      "outputs": [],
      "stateMutability": "nonpayable",
      "type": "function"
    },
    {
      "inputs": [],
      "name": "superSolidAddress",
      "outputs": [
        {
          "internalType": "address",
          "name": "",
          "type": "address"
        }
      ],
      "stateMutability": "view",
      "type": "function"
    },
    {
      "inputs": [
        {
          "internalType": "bytes4",
          "name": "interfaceId",
          "type": "bytes4"
        }
      ],
      "name": "supportsInterface",
      "outputs": [
        {
          "internalType": "bool",
          "name": "",
          "type": "bool"
        }
      ],
      "stateMutability": "view",
      "type": "function"
    },
    {
      "inputs": [
        {
          "internalType": "uint256",
          "name": "tokenId",
          "type": "uint256"
        }
      ],
      "name": "uri",
      "outputs": [
        {
          "internalType": "string",
          "name": "",
          "type": "string"
        }
      ],
      "stateMutability": "view",
      "type": "function"
    }
  ],
  "bytecode": "0x608060405234801561001057600080fd5b50604051611bff380380611bff83398101604081905261002f91610054565b600480546001600160a01b0319166001600160a01b0392909216919091179055610084565b60006020828403121561006657600080fd5b81516001600160a01b038116811461007d57600080fd5b9392505050565b611b6c806100936000396000f3fe608060405234801561001057600080fd5b50600436106100e95760003560e01c80639c2c9b2e1161008c578063d599a1c611610066578063d599a1c6146101fd578063e985e9c514610226578063f242432a14610262578063f9437b011461027057600080fd5b80639c2c9b2e146101b2578063a22cb465146101d7578063b390c0ab146101ea57600080fd5b80632eb2c2d6116100c85780632eb2c2d61461015757806338926b6d1461016c5780633dfafd531461017f5780634e1273f41461019257600080fd5b8062fdd58e146100ee57806301ffc9a7146101145780630e89341c14610137575b600080fd5b6101016100fc36600461124a565b610283565b6040519081526020015b60405180910390f35b61012761012236600461128d565b610319565b604051901515815260200161010b565b61014a6101453660046112b1565b61036b565b60405161010b9190611317565b61016a610165366004611476565b61040d565b005b61016a61017a366004611569565b61045c565b61012761018d366004611569565b6105ec565b6101a56101a03660046115b5565b610718565b60405161010b91906116bb565b6004546001600160a01b03165b6040516001600160a01b03909116815260200161010b565b61016a6101e53660046116dc565b610842565b61016a6101f8366004611713565b610851565b6101bf61020b3660046112b1565b6000908152600260205260409020546001600160a01b031690565b610127610234366004611735565b6001600160a01b03918216600090815260016020908152604080832093909416825291909152205460ff1690565b61016a610165366004611768565b61016a61027e3660046117cd565b61085c565b60006001600160a01b0383166102f35760405162461bcd60e51b815260206004820152602a60248201527f455243313135353a2061646472657373207a65726f206973206e6f742061207660448201526930b634b21037bbb732b960b11b60648201526084015b60405180910390fd5b506000908152602081815260408083206001600160a01b03949094168352929052205490565b60006001600160e01b03198216636cdb3d1360e11b148061034a57506001600160e01b031982166303a24d0760e21b145b8061036557506301ffc9a760e01b6001600160e01b03198316145b92915050565b600081815260036020526040902080546060919061038890611847565b80601f01602080910402602001604051908101604052809291908181526020018280546103b490611847565b80156104015780601f106103d657610100808354040283529160200191610401565b820191906000526020600020905b8154815290600101906020018083116103e457829003601f168201915b50505050509050919050565b60405162461bcd60e51b815260206004820152601b60248201527f546f6b656e2063616e206e6f74206265207472616e736665726564000000000060448201526064016102ea565b5050505050565b6000838152600260205260408120600101805461047890611847565b80601f01602080910402602001604051908101604052809291908181526020018280546104a490611847565b80156104f15780601f106104c6576101008083540402835291602001916104f1565b820191906000526020600020905b8154815290600101906020018083116104d457829003601f168201915b505060048054604051633461bf1360e11b81529596506000956001600160a01b0390911694506368c37e2693506105319250869189918991339101611882565b60206040518083038186803b15801561054957600080fd5b505afa15801561055d573d6000803e3d6000fd5b505050506040513d601f19601f8201168201806040525081019061058191906118d7565b9050806105d05760405162461bcd60e51b815260206004820152601e60248201527f4e6f7420616c6c6f77656420746f20636c61696d2074686520746f6b656e000060448201526064016102ea565b6104553386600160405180602001604052806000815250610b1a565b6000838152600260205260408120600101805482919061060b90611847565b80601f016020809104026020016040519081016040528092919081815260200182805461063790611847565b80156106845780601f1061065957610100808354040283529160200191610684565b820191906000526020600020905b81548152906001019060200180831161066757829003601f168201915b505060048054604051633461bf1360e11b81529596506001600160a01b0316946368c37e2694506106bf935086925089918991339101611882565b60206040518083038186803b1580156106d757600080fd5b505afa1580156106eb573d6000803e3d6000fd5b505050506040513d601f19601f8201168201806040525081019061070f91906118d7565b95945050505050565b6060815183511461077d5760405162461bcd60e51b815260206004820152602960248201527f455243313135353a206163636f756e747320616e6420696473206c656e677468604482015268040dad2e6dac2e8c6d60bb1b60648201526084016102ea565b6000835167ffffffffffffffff8111156107995761079961132a565b6040519080825280602002602001820160405280156107c2578160200160208202803683370190505b50905060005b845181101561083a5761080d8582815181106107e6576107e66118f4565b6020026020010151858381518110610800576108006118f4565b6020026020010151610283565b82828151811061081f5761081f6118f4565b602090810291909101015261083381611920565b90506107c8565b509392505050565b61084d338383610c2e565b5050565b61084d338383610d0f565b604051806040016040528061086e3390565b6001600160a01b0316815260200185858080601f0160208091040260200160405190810160405280939291908181526020018383808284376000920182905250939094525050878152600260209081526040909120835181546001600160a01b0319166001600160a01b039091161781558382015180519193506108f9926001850192910190611195565b5090505061093d8583838080601f016020809104026020016040519081016040528093929190818152602001838380828437600092019190915250610e8b92505050565b838360405161094d92919061193b565b6040519081900381209086907f116fd5a6fbb5ba062480f0da2045e37f53b02038395696e491bd2764ebcae12a90600090a35050505050565b8451811015610aac5760008582815181106109a3576109a36118f4565b6020026020010151905060008583815181106109c1576109c16118f4565b602090810291909101810151600084815280835260408082206001600160a01b038e168352909352919091205490915081811015610a545760405162461bcd60e51b815260206004820152602a60248201527f455243313135353a20696e73756666696369656e742062616c616e636520666f60448201526939103a3930b739b332b960b11b60648201526084016102ea565b6000838152602081815260408083206001600160a01b038e8116855292528083208585039055908b16825281208054849290610a9190849061194b565b9250508190555050505080610aa590611920565b9050610986565b50846001600160a01b0316866001600160a01b0316826001600160a01b03167f4a39dc06d4c0dbc64b70af90fd698a233a518aa5d07e595d983b8c0526c8f7fb8787604051610afc929190611963565b60405180910390a4610b12818787878787610f15565b505050505050565b6001600160a01b038416610b7a5760405162461bcd60e51b815260206004820152602160248201527f455243313135353a206d696e7420746f20746865207a65726f206164647265736044820152607360f81b60648201526084016102ea565b336000610b8685611080565b90506000610b9385611080565b90506000868152602081815260408083206001600160a01b038b16845290915281208054879290610bc590849061194b565b909155505060408051878152602081018790526001600160a01b03808a1692600092918716917fc3d58168c5ae7397731d063d5bbf3d657854427343f4c083240f7aacaa2d0f62910160405180910390a4610c25836000898989896110cb565b50505050505050565b816001600160a01b0316836001600160a01b03161415610ca25760405162461bcd60e51b815260206004820152602960248201527f455243313135353a2073657474696e6720617070726f76616c20737461747573604482015268103337b91039b2b63360b91b60648201526084016102ea565b6001600160a01b03838116600081815260016020908152604080832094871680845294825291829020805460ff191686151590811790915591519182527f17307eab39ab6107e8899845ad3d59bd9653f200f220920489ca2b5937696c31910160405180910390a3505050565b6001600160a01b038316610d715760405162461bcd60e51b815260206004820152602360248201527f455243313135353a206275726e2066726f6d20746865207a65726f206164647260448201526265737360e81b60648201526084016102ea565b336000610d7d84611080565b90506000610d8a84611080565b60408051602080820183526000918290528882528181528282206001600160a01b038b1683529052205490915084811015610e135760405162461bcd60e51b8152602060048201526024808201527f455243313135353a206275726e20616d6f756e7420657863656564732062616c604482015263616e636560e01b60648201526084016102ea565b6000868152602081815260408083206001600160a01b038b81168086529184528285208a8703905582518b81529384018a90529092908816917fc3d58168c5ae7397731d063d5bbf3d657854427343f4c083240f7aacaa2d0f62910160405180910390a4604080516020810190915260009052610c25565b6000828152600260205260409020546001600160a01b03163314610ef15760405162461bcd60e51b815260206004820181905260248201527f4e6f7420617574686f72697a656420746f206368616e6765207468652075726960448201526064016102ea565b60008281526003602090815260409091208251610f1092840190611195565b505050565b6001600160a01b0384163b15610b125760405163bc197c8160e01b81526001600160a01b0385169063bc197c8190610f599089908990889088908890600401611988565b602060405180830381600087803b158015610f7357600080fd5b505af1925050508015610fa3575060408051601f3d908101601f19168201909252610fa0918101906119e6565b60015b61105057610faf611a03565b806308c379a01415610fe95750610fc4611a1f565b80610fcf5750610feb565b8060405162461bcd60e51b81526004016102ea9190611317565b505b60405162461bcd60e51b815260206004820152603460248201527f455243313135353a207472616e7366657220746f206e6f6e2d455243313135356044820152732932b1b2b4bb32b91034b6b83632b6b2b73a32b960611b60648201526084016102ea565b6001600160e01b0319811663bc197c8160e01b14610c255760405162461bcd60e51b81526004016102ea90611aa9565b604080516001808252818301909252606091600091906020808301908036833701905050905082816000815181106110ba576110ba6118f4565b602090810291909101015292915050565b6001600160a01b0384163b15610b125760405163f23a6e6160e01b81526001600160a01b0385169063f23a6e619061110f9089908990889088908890600401611af1565b602060405180830381600087803b15801561112957600080fd5b505af1925050508015611159575060408051601f3d908101601f19168201909252611156918101906119e6565b60015b61116557610faf611a03565b6001600160e01b0319811663f23a6e6160e01b14610c255760405162461bcd60e51b81526004016102ea90611aa9565b8280546111a190611847565b90600052602060002090601f0160209004810192826111c35760008555611209565b82601f106111dc57805160ff1916838001178555611209565b82800160010185558215611209579182015b828111156112095782518255916020019190600101906111ee565b50611215929150611219565b5090565b5b80821115611215576000815560010161121a565b80356001600160a01b038116811461124557600080fd5b919050565b6000806040838503121561125d57600080fd5b6112668361122e565b946020939093013593505050565b6001600160e01b03198116811461128a57600080fd5b50565b60006020828403121561129f57600080fd5b81356112aa81611274565b9392505050565b6000602082840312156112c357600080fd5b5035919050565b6000815180845260005b818110156112f0576020818501810151868301820152016112d4565b81811115611302576000602083870101525b50601f01601f19169290920160200192915050565b6020815260006112aa60208301846112ca565b634e487b7160e01b600052604160045260246000fd5b601f8201601f1916810167ffffffffffffffff811182821017156113665761136661132a565b6040525050565b600067ffffffffffffffff8211156113875761138761132a565b5060051b60200190565b600082601f8301126113a257600080fd5b813560206113af8261136d565b6040516113bc8282611340565b83815260059390931b85018201928281019150868411156113dc57600080fd5b8286015b848110156113f757803583529183019183016113e0565b509695505050505050565b600082601f83011261141357600080fd5b813567ffffffffffffffff81111561142d5761142d61132a565b604051611444601f8301601f191660200182611340565b81815284602083860101111561145957600080fd5b816020850160208301376000918101602001919091529392505050565b600080600080600060a0868803121561148e57600080fd5b6114978661122e565b94506114a56020870161122e565b9350604086013567ffffffffffffffff808211156114c257600080fd5b6114ce89838a01611391565b945060608801359150808211156114e457600080fd5b6114f089838a01611391565b9350608088013591508082111561150657600080fd5b5061151388828901611402565b9150509295509295909350565b60008083601f84011261153257600080fd5b50813567ffffffffffffffff81111561154a57600080fd5b60208301915083602082850101111561156257600080fd5b9250929050565b60008060006040848603121561157e57600080fd5b83359250602084013567ffffffffffffffff81111561159c57600080fd5b6115a886828701611520565b9497909650939450505050565b600080604083850312156115c857600080fd5b823567ffffffffffffffff808211156115e057600080fd5b818501915085601f8301126115f457600080fd5b813560206116018261136d565b60405161160e8282611340565b83815260059390931b850182019282810191508984111561162e57600080fd5b948201945b83861015611653576116448661122e565b82529482019490820190611633565b9650508601359250508082111561166957600080fd5b5061167685828601611391565b9150509250929050565b600081518084526020808501945080840160005b838110156116b057815187529582019590820190600101611694565b509495945050505050565b6020815260006112aa6020830184611680565b801515811461128a57600080fd5b600080604083850312156116ef57600080fd5b6116f88361122e565b91506020830135611708816116ce565b809150509250929050565b6000806040838503121561172657600080fd5b50508035926020909101359150565b6000806040838503121561174857600080fd5b6117518361122e565b915061175f6020840161122e565b90509250929050565b600080600080600060a0868803121561178057600080fd5b6117898661122e565b94506117976020870161122e565b93506040860135925060608601359150608086013567ffffffffffffffff8111156117c157600080fd5b61151388828901611402565b6000806000806000606086880312156117e557600080fd5b85359450602086013567ffffffffffffffff8082111561180457600080fd5b61181089838a01611520565b9096509450604088013591508082111561182957600080fd5b5061183688828901611520565b969995985093965092949392505050565b600181811c9082168061185b57607f821691505b6020821081141561187c57634e487b7160e01b600052602260045260246000fd5b50919050565b60608152600061189560608301876112ca565b8281036020840152848152848660208301376000602086830101526020601f19601f87011682010191505060018060a01b038316604083015295945050505050565b6000602082840312156118e957600080fd5b81516112aa816116ce565b634e487b7160e01b600052603260045260246000fd5b634e487b7160e01b600052601160045260246000fd5b60006000198214156119345761193461190a565b5060010190565b8183823760009101908152919050565b6000821982111561195e5761195e61190a565b500190565b6040815260006119766040830185611680565b828103602084015261070f8185611680565b6001600160a01b0386811682528516602082015260a0604082018190526000906119b490830186611680565b82810360608401526119c68186611680565b905082810360808401526119da81856112ca565b98975050505050505050565b6000602082840312156119f857600080fd5b81516112aa81611274565b600060033d1115611a1c5760046000803e5060005160e01c5b90565b600060443d1015611a2d5790565b6040516003193d81016004833e81513d67ffffffffffffffff8160248401118184111715611a5d57505050505090565b8285019150815181811115611a755750505050505090565b843d8701016020828501011115611a8f5750505050505090565b611a9e60208286010187611340565b509095945050505050565b60208082526028908201527f455243313135353a204552433131353552656365697665722072656a656374656040820152676420746f6b656e7360c01b606082015260800190565b6001600160a01b03868116825285166020820152604081018490526060810183905260a060808201819052600090611b2b908301846112ca565b97965050505050505056fea2646970667358221220692dd652e60ad6c3b530045b1eeffaecc7d6fb101c95d0287bc80da506c0c9ee64736f6c63430008090033",
  "linkReferences": {},
  "deployedLinkReferences": {}
}