{
  "_format": "hh-sol-artifact-1",
  "contractName": "ActivityToken",
  "sourceName": "contracts/ActivityToken.sol",
  "abi": [
    {
      "inputs": [
        {
          "internalType": "address",
          "name": "superSolid",
          "type": "address"
        }
      ],
      "stateMutability": "nonpayable",
      "type": "constructor"
    },
    {
      "anonymous": false,
      "inputs": [
        {
          "indexed": true,
          "internalType": "address",
          "name": "account",
          "type": "address"
        },
        {
          "indexed": true,
          "internalType": "address",
          "name": "operator",
          "type": "address"
        },
        {
          "indexed": false,
          "internalType": "bool",
          "name": "approved",
          "type": "bool"
        }
      ],
      "name": "ApprovalForAll",
      "type": "event"
    },
    {
      "anonymous": false,
      "inputs": [
        {
          "indexed": true,
          "internalType": "uint256",
          "name": "tokenId",
          "type": "uint256"
        },
        {
          "indexed": false,
          "internalType": "bytes",
          "name": "cBytes",
          "type": "bytes"
        }
      ],
      "name": "SetupEvent",
      "type": "event"
    },
    {
      "anonymous": false,
      "inputs": [
        {
          "indexed": true,
          "internalType": "address",
          "name": "operator",
          "type": "address"
        },
        {
          "indexed": true,
          "internalType": "address",
          "name": "from",
          "type": "address"
        },
        {
          "indexed": true,
          "internalType": "address",
          "name": "to",
          "type": "address"
        },
        {
          "indexed": false,
          "internalType": "uint256[]",
          "name": "ids",
          "type": "uint256[]"
        },
        {
          "indexed": false,
          "internalType": "uint256[]",
          "name": "values",
          "type": "uint256[]"
        }
      ],
      "name": "TransferBatch",
      "type": "event"
    },
    {
      "anonymous": false,
      "inputs": [
        {
          "indexed": true,
          "internalType": "address",
          "name": "operator",
          "type": "address"
        },
        {
          "indexed": true,
          "internalType": "address",
          "name": "from",
          "type": "address"
        },
        {
          "indexed": true,
          "internalType": "address",
          "name": "to",
          "type": "address"
        },
        {
          "indexed": false,
          "internalType": "uint256",
          "name": "id",
          "type": "uint256"
        },
        {
          "indexed": false,
          "internalType": "uint256",
          "name": "value",
          "type": "uint256"
        }
      ],
      "name": "TransferSingle",
      "type": "event"
    },
    {
      "anonymous": false,
      "inputs": [
        {
          "indexed": false,
          "internalType": "string",
          "name": "value",
          "type": "string"
        },
        {
          "indexed": true,
          "internalType": "uint256",
          "name": "id",
          "type": "uint256"
        }
      ],
      "name": "URI",
      "type": "event"
    },
    {
      "inputs": [
        {
          "internalType": "uint256",
          "name": "tokenId",
          "type": "uint256"
        }
      ],
      "name": "admin",
      "outputs": [
        {
          "internalType": "address",
          "name": "",
          "type": "address"
        }
      ],
      "stateMutability": "view",
      "type": "function"
    },
    {
      "inputs": [
        {
          "internalType": "address",
          "name": "account",
          "type": "address"
        },
        {
          "internalType": "uint256",
          "name": "id",
          "type": "uint256"
        }
      ],
      "name": "balanceOf",
      "outputs": [
        {
          "internalType": "uint256",
          "name": "",
          "type": "uint256"
        }
      ],
      "stateMutability": "view",
      "type": "function"
    },
    {
      "inputs": [
        {
          "internalType": "address[]",
          "name": "accounts",
          "type": "address[]"
        },
        {
          "internalType": "uint256[]",
          "name": "ids",
          "type": "uint256[]"
        }
      ],
      "name": "balanceOfBatch",
      "outputs": [
        {
          "internalType": "uint256[]",
          "name": "",
          "type": "uint256[]"
        }
      ],
      "stateMutability": "view",
      "type": "function"
    },
    {
      "inputs": [
        {
          "internalType": "uint256",
          "name": "tokenId",
          "type": "uint256"
        },
        {
          "internalType": "uint256",
          "name": "amount",
          "type": "uint256"
        }
      ],
      "name": "burn",
      "outputs": [],
      "stateMutability": "nonpayable",
      "type": "function"
    },
    {
      "inputs": [
        {
          "internalType": "uint256",
          "name": "tokenId",
          "type": "uint256"
        },
        {
          "internalType": "bytes",
          "name": "data",
          "type": "bytes"
        }
      ],
      "name": "checkValidity",
      "outputs": [
        {
          "internalType": "bool",
          "name": "",
          "type": "bool"
        }
      ],
      "stateMutability": "view",
      "type": "function"
    },
    {
      "inputs": [
        {
          "internalType": "uint256",
          "name": "tokenId",
          "type": "uint256"
        },
        {
          "internalType": "bytes",
          "name": "data",
          "type": "bytes"
        }
      ],
      "name": "claim",
      "outputs": [],
      "stateMutability": "nonpayable",
      "type": "function"
    },
    {
      "inputs": [
        {
          "internalType": "address",
          "name": "account",
          "type": "address"
        },
        {
          "internalType": "address",
          "name": "operator",
          "type": "address"
        }
      ],
      "name": "isApprovedForAll",
      "outputs": [
        {
          "internalType": "bool",
          "name": "",
          "type": "bool"
        }
      ],
      "stateMutability": "view",
      "type": "function"
    },
    {
      "inputs": [
        {
          "internalType": "address",
          "name": "from",
          "type": "address"
        },
        {
          "internalType": "address",
          "name": "to",
          "type": "address"
        },
        {
          "internalType": "uint256[]",
          "name": "ids",
          "type": "uint256[]"
        },
        {
          "internalType": "uint256[]",
          "name": "amounts",
          "type": "uint256[]"
        },
        {
          "internalType": "bytes",
          "name": "data",
          "type": "bytes"
        }
      ],
      "name": "safeBatchTransferFrom",
      "outputs": [],
      "stateMutability": "nonpayable",
      "type": "function"
    },
    {
      "inputs": [
        {
          "internalType": "address",
          "name": "from",
          "type": "address"
        },
        {
          "internalType": "address",
          "name": "to",
          "type": "address"
        },
        {
          "internalType": "uint256",
          "name": "id",
          "type": "uint256"
        },
        {
          "internalType": "uint256",
          "name": "amount",
          "type": "uint256"
        },
        {
          "internalType": "bytes",
          "name": "data",
          "type": "bytes"
        }
      ],
      "name": "safeTransferFrom",
      "outputs": [],
      "stateMutability": "nonpayable",
      "type": "function"
    },
    {
      "inputs": [
        {
          "internalType": "address",
          "name": "operator",
          "type": "address"
        },
        {
          "internalType": "bool",
          "name": "approved",
          "type": "bool"
        }
      ],
      "name": "setApprovalForAll",
      "outputs": [],
      "stateMutability": "nonpayable",
      "type": "function"
    },
    {
      "inputs": [
        {
          "internalType": "uint256",
          "name": "tokenId",
          "type": "uint256"
        },
        {
          "internalType": "bytes",
          "name": "superSolBytes",
          "type": "bytes"
        },
        {
          "internalType": "string",
          "name": "tokenURI",
          "type": "string"
        }
      ],
      "name": "setup",
      "outputs": [],
      "stateMutability": "nonpayable",
      "type": "function"
    },
    {
      "inputs": [],
      "name": "superSolidAddress",
      "outputs": [
        {
          "internalType": "address",
          "name": "",
          "type": "address"
        }
      ],
      "stateMutability": "view",
      "type": "function"
    },
    {
      "inputs": [
        {
          "internalType": "bytes4",
          "name": "interfaceId",
          "type": "bytes4"
        }
      ],
      "name": "supportsInterface",
      "outputs": [
        {
          "internalType": "bool",
          "name": "",
          "type": "bool"
        }
      ],
      "stateMutability": "view",
      "type": "function"
    },
    {
      "inputs": [
        {
          "internalType": "uint256",
          "name": "tokenId",
          "type": "uint256"
        }
      ],
      "name": "uri",
      "outputs": [
        {
          "internalType": "string",
          "name": "",
          "type": "string"
        }
      ],
      "stateMutability": "view",
      "type": "function"
    }
  ],
  "bytecode": "0x608060405234801561001057600080fd5b50604051611c17380380611c1783398101604081905261002f91610054565b600480546001600160a01b0319166001600160a01b0392909216919091179055610084565b60006020828403121561006657600080fd5b81516001600160a01b038116811461007d57600080fd5b9392505050565b611b84806100936000396000f3fe608060405234801561001057600080fd5b50600436106100e95760003560e01c80639c2c9b2e1161008c578063d599a1c611610066578063d599a1c6146101fd578063e985e9c514610226578063f242432a14610262578063f9437b011461027057600080fd5b80639c2c9b2e146101b2578063a22cb465146101d7578063b390c0ab146101ea57600080fd5b80632eb2c2d6116100c85780632eb2c2d61461015757806338926b6d1461016c5780633dfafd531461017f5780634e1273f41461019257600080fd5b8062fdd58e146100ee57806301ffc9a7146101145780630e89341c14610137575b600080fd5b6101016100fc366004611242565b610283565b6040519081526020015b60405180910390f35b610127610122366004611285565b610319565b604051901515815260200161010b565b61014a6101453660046112a9565b61036b565b60405161010b919061130f565b61016a61016536600461146e565b61040d565b005b61016a61017a366004611561565b61045c565b61012761018d366004611561565b6105ec565b6101a56101a03660046115ad565b610718565b60405161010b91906116b3565b6004546001600160a01b03165b6040516001600160a01b03909116815260200161010b565b61016a6101e53660046116d4565b610842565b61016a6101f836600461170b565b610851565b6101bf61020b3660046112a9565b6000908152600260205260409020546001600160a01b031690565b61012761023436600461172d565b6001600160a01b03918216600090815260016020908152604080832093909416825291909152205460ff1690565b61016a610165366004611760565b61016a61027e3660046117c5565b61085c565b60006001600160a01b0383166102f35760405162461bcd60e51b815260206004820152602a60248201527f455243313135353a2061646472657373207a65726f206973206e6f742061207660448201526930b634b21037bbb732b960b11b60648201526084015b60405180910390fd5b506000908152602081815260408083206001600160a01b03949094168352929052205490565b60006001600160e01b03198216636cdb3d1360e11b148061034a57506001600160e01b031982166303a24d0760e21b145b8061036557506301ffc9a760e01b6001600160e01b03198316145b92915050565b60008181526003602052604090208054606091906103889061183f565b80601f01602080910402602001604051908101604052809291908181526020018280546103b49061183f565b80156104015780601f106103d657610100808354040283529160200191610401565b820191906000526020600020905b8154815290600101906020018083116103e457829003601f168201915b50505050509050919050565b60405162461bcd60e51b815260206004820152601b60248201527f546f6b656e2063616e206e6f74206265207472616e736665726564000000000060448201526064016102ea565b5050505050565b600083815260026020526040812060010180546104789061183f565b80601f01602080910402602001604051908101604052809291908181526020018280546104a49061183f565b80156104f15780601f106104c6576101008083540402835291602001916104f1565b820191906000526020600020905b8154815290600101906020018083116104d457829003601f168201915b505060048054604051633461bf1360e11b81529596506000956001600160a01b0390911694506368c37e26935061053192508691899189913391016118a3565b60206040518083038186803b15801561054957600080fd5b505afa15801561055d573d6000803e3d6000fd5b505050506040513d601f19601f8201168201806040525081019061058191906118e3565b9050806105d05760405162461bcd60e51b815260206004820152601e60248201527f4e6f7420616c6c6f77656420746f20636c61696d2074686520746f6b656e000060448201526064016102ea565b6104553386600160405180602001604052806000815250610b12565b6000838152600260205260408120600101805482919061060b9061183f565b80601f01602080910402602001604051908101604052809291908181526020018280546106379061183f565b80156106845780601f1061065957610100808354040283529160200191610684565b820191906000526020600020905b81548152906001019060200180831161066757829003601f168201915b505060048054604051633461bf1360e11b81529596506001600160a01b0316946368c37e2694506106bf9350869250899189913391016118a3565b60206040518083038186803b1580156106d757600080fd5b505afa1580156106eb573d6000803e3d6000fd5b505050506040513d601f19601f8201168201806040525081019061070f91906118e3565b95945050505050565b6060815183511461077d5760405162461bcd60e51b815260206004820152602960248201527f455243313135353a206163636f756e747320616e6420696473206c656e677468604482015268040dad2e6dac2e8c6d60bb1b60648201526084016102ea565b6000835167ffffffffffffffff81111561079957610799611322565b6040519080825280602002602001820160405280156107c2578160200160208202803683370190505b50905060005b845181101561083a5761080d8582815181106107e6576107e6611900565b602002602001015185838151811061080057610800611900565b6020026020010151610283565b82828151811061081f5761081f611900565b60209081029190910101526108338161192c565b90506107c8565b509392505050565b61084d338383610c26565b5050565b61084d338383610d07565b604051806040016040528061086e3390565b6001600160a01b0316815260200185858080601f0160208091040260200160405190810160405280939291908181526020018383808284376000920182905250939094525050878152600260209081526040909120835181546001600160a01b0319166001600160a01b039091161781558382015180519193506108f992600185019291019061118d565b5090505061093d8583838080601f016020809104026020016040519081016040528093929190818152602001838380828437600092019190915250610e8392505050565b847f116fd5a6fbb5ba062480f0da2045e37f53b02038395696e491bd2764ebcae12a858560405161096f929190611947565b60405180910390a25050505050565b8451811015610aa457600085828151811061099b5761099b611900565b6020026020010151905060008583815181106109b9576109b9611900565b602090810291909101810151600084815280835260408082206001600160a01b038e168352909352919091205490915081811015610a4c5760405162461bcd60e51b815260206004820152602a60248201527f455243313135353a20696e73756666696369656e742062616c616e636520666f60448201526939103a3930b739b332b960b11b60648201526084016102ea565b6000838152602081815260408083206001600160a01b038e8116855292528083208585039055908b16825281208054849290610a89908490611963565b9250508190555050505080610a9d9061192c565b905061097e565b50846001600160a01b0316866001600160a01b0316826001600160a01b03167f4a39dc06d4c0dbc64b70af90fd698a233a518aa5d07e595d983b8c0526c8f7fb8787604051610af492919061197b565b60405180910390a4610b0a818787878787610f0d565b505050505050565b6001600160a01b038416610b725760405162461bcd60e51b815260206004820152602160248201527f455243313135353a206d696e7420746f20746865207a65726f206164647265736044820152607360f81b60648201526084016102ea565b336000610b7e85611078565b90506000610b8b85611078565b90506000868152602081815260408083206001600160a01b038b16845290915281208054879290610bbd908490611963565b909155505060408051878152602081018790526001600160a01b03808a1692600092918716917fc3d58168c5ae7397731d063d5bbf3d657854427343f4c083240f7aacaa2d0f62910160405180910390a4610c1d836000898989896110c3565b50505050505050565b816001600160a01b0316836001600160a01b03161415610c9a5760405162461bcd60e51b815260206004820152602960248201527f455243313135353a2073657474696e6720617070726f76616c20737461747573604482015268103337b91039b2b63360b91b60648201526084016102ea565b6001600160a01b03838116600081815260016020908152604080832094871680845294825291829020805460ff191686151590811790915591519182527f17307eab39ab6107e8899845ad3d59bd9653f200f220920489ca2b5937696c31910160405180910390a3505050565b6001600160a01b038316610d695760405162461bcd60e51b815260206004820152602360248201527f455243313135353a206275726e2066726f6d20746865207a65726f206164647260448201526265737360e81b60648201526084016102ea565b336000610d7584611078565b90506000610d8284611078565b60408051602080820183526000918290528882528181528282206001600160a01b038b1683529052205490915084811015610e0b5760405162461bcd60e51b8152602060048201526024808201527f455243313135353a206275726e20616d6f756e7420657863656564732062616c604482015263616e636560e01b60648201526084016102ea565b6000868152602081815260408083206001600160a01b038b81168086529184528285208a8703905582518b81529384018a90529092908816917fc3d58168c5ae7397731d063d5bbf3d657854427343f4c083240f7aacaa2d0f62910160405180910390a4604080516020810190915260009052610c1d565b6000828152600260205260409020546001600160a01b03163314610ee95760405162461bcd60e51b815260206004820181905260248201527f4e6f7420617574686f72697a656420746f206368616e6765207468652075726960448201526064016102ea565b60008281526003602090815260409091208251610f089284019061118d565b505050565b6001600160a01b0384163b15610b0a5760405163bc197c8160e01b81526001600160a01b0385169063bc197c8190610f5190899089908890889088906004016119a0565b602060405180830381600087803b158015610f6b57600080fd5b505af1925050508015610f9b575060408051601f3d908101601f19168201909252610f98918101906119fe565b60015b61104857610fa7611a1b565b806308c379a01415610fe15750610fbc611a37565b80610fc75750610fe3565b8060405162461bcd60e51b81526004016102ea919061130f565b505b60405162461bcd60e51b815260206004820152603460248201527f455243313135353a207472616e7366657220746f206e6f6e2d455243313135356044820152732932b1b2b4bb32b91034b6b83632b6b2b73a32b960611b60648201526084016102ea565b6001600160e01b0319811663bc197c8160e01b14610c1d5760405162461bcd60e51b81526004016102ea90611ac1565b604080516001808252818301909252606091600091906020808301908036833701905050905082816000815181106110b2576110b2611900565b602090810291909101015292915050565b6001600160a01b0384163b15610b0a5760405163f23a6e6160e01b81526001600160a01b0385169063f23a6e61906111079089908990889088908890600401611b09565b602060405180830381600087803b15801561112157600080fd5b505af1925050508015611151575060408051601f3d908101601f1916820190925261114e918101906119fe565b60015b61115d57610fa7611a1b565b6001600160e01b0319811663f23a6e6160e01b14610c1d5760405162461bcd60e51b81526004016102ea90611ac1565b8280546111999061183f565b90600052602060002090601f0160209004810192826111bb5760008555611201565b82601f106111d457805160ff1916838001178555611201565b82800160010185558215611201579182015b828111156112015782518255916020019190600101906111e6565b5061120d929150611211565b5090565b5b8082111561120d5760008155600101611212565b80356001600160a01b038116811461123d57600080fd5b919050565b6000806040838503121561125557600080fd5b61125e83611226565b946020939093013593505050565b6001600160e01b03198116811461128257600080fd5b50565b60006020828403121561129757600080fd5b81356112a28161126c565b9392505050565b6000602082840312156112bb57600080fd5b5035919050565b6000815180845260005b818110156112e8576020818501810151868301820152016112cc565b818111156112fa576000602083870101525b50601f01601f19169290920160200192915050565b6020815260006112a260208301846112c2565b634e487b7160e01b600052604160045260246000fd5b601f8201601f1916810167ffffffffffffffff8111828210171561135e5761135e611322565b6040525050565b600067ffffffffffffffff82111561137f5761137f611322565b5060051b60200190565b600082601f83011261139a57600080fd5b813560206113a782611365565b6040516113b48282611338565b83815260059390931b85018201928281019150868411156113d457600080fd5b8286015b848110156113ef57803583529183019183016113d8565b509695505050505050565b600082601f83011261140b57600080fd5b813567ffffffffffffffff81111561142557611425611322565b60405161143c601f8301601f191660200182611338565b81815284602083860101111561145157600080fd5b816020850160208301376000918101602001919091529392505050565b600080600080600060a0868803121561148657600080fd5b61148f86611226565b945061149d60208701611226565b9350604086013567ffffffffffffffff808211156114ba57600080fd5b6114c689838a01611389565b945060608801359150808211156114dc57600080fd5b6114e889838a01611389565b935060808801359150808211156114fe57600080fd5b5061150b888289016113fa565b9150509295509295909350565b60008083601f84011261152a57600080fd5b50813567ffffffffffffffff81111561154257600080fd5b60208301915083602082850101111561155a57600080fd5b9250929050565b60008060006040848603121561157657600080fd5b83359250602084013567ffffffffffffffff81111561159457600080fd5b6115a086828701611518565b9497909650939450505050565b600080604083850312156115c057600080fd5b823567ffffffffffffffff808211156115d857600080fd5b818501915085601f8301126115ec57600080fd5b813560206115f982611365565b6040516116068282611338565b83815260059390931b850182019282810191508984111561162657600080fd5b948201945b8386101561164b5761163c86611226565b8252948201949082019061162b565b9650508601359250508082111561166157600080fd5b5061166e85828601611389565b9150509250929050565b600081518084526020808501945080840160005b838110156116a85781518752958201959082019060010161168c565b509495945050505050565b6020815260006112a26020830184611678565b801515811461128257600080fd5b600080604083850312156116e757600080fd5b6116f083611226565b91506020830135611700816116c6565b809150509250929050565b6000806040838503121561171e57600080fd5b50508035926020909101359150565b6000806040838503121561174057600080fd5b61174983611226565b915061175760208401611226565b90509250929050565b600080600080600060a0868803121561177857600080fd5b61178186611226565b945061178f60208701611226565b93506040860135925060608601359150608086013567ffffffffffffffff8111156117b957600080fd5b61150b888289016113fa565b6000806000806000606086880312156117dd57600080fd5b85359450602086013567ffffffffffffffff808211156117fc57600080fd5b61180889838a01611518565b9096509450604088013591508082111561182157600080fd5b5061182e88828901611518565b969995985093965092949392505050565b600181811c9082168061185357607f821691505b6020821081141561187457634e487b7160e01b600052602260045260246000fd5b50919050565b81835281816020850137506000828201602090810191909152601f909101601f19169091010190565b6060815260006118b660608301876112c2565b82810360208401526118c981868861187a565b91505060018060a01b038316604083015295945050505050565b6000602082840312156118f557600080fd5b81516112a2816116c6565b634e487b7160e01b600052603260045260246000fd5b634e487b7160e01b600052601160045260246000fd5b600060001982141561194057611940611916565b5060010190565b60208152600061195b60208301848661187a565b949350505050565b6000821982111561197657611976611916565b500190565b60408152600061198e6040830185611678565b828103602084015261070f8185611678565b6001600160a01b0386811682528516602082015260a0604082018190526000906119cc90830186611678565b82810360608401526119de8186611678565b905082810360808401526119f281856112c2565b98975050505050505050565b600060208284031215611a1057600080fd5b81516112a28161126c565b600060033d1115611a345760046000803e5060005160e01c5b90565b600060443d1015611a455790565b6040516003193d81016004833e81513d67ffffffffffffffff8160248401118184111715611a7557505050505090565b8285019150815181811115611a8d5750505050505090565b843d8701016020828501011115611aa75750505050505090565b611ab660208286010187611338565b509095945050505050565b60208082526028908201527f455243313135353a204552433131353552656365697665722072656a656374656040820152676420746f6b656e7360c01b606082015260800190565b6001600160a01b03868116825285166020820152604081018490526060810183905260a060808201819052600090611b43908301846112c2565b97965050505050505056fea264697066735822122053d12d556bd87d07af6e4f9c3af7078598cbcb330d3468f23799664da055defe64736f6c63430008090033",
  "linkReferences": {},
  "deployedLinkReferences": {}
}